:100000000C942A000C9463000C9463000C9463001D
:100010000C9463000C9463000C9463000C946300D4
:100020000C9463000C9463000C9463000C946300C4
:100030000C9463000C9463000C9463000C946300B4
:100040000C9463000C9463000C9463000C946300A4
:100050000C94630011241FBECFE5D8E0DEBFCDBFF6
:0C0060000E9436000C944C00F894FFCF76
:10006C000E945700C0E006C08C2F0E9465000E94C1
:10007C005E00CF5FCF3FC1F706C08C2F0E9465009A
:0C008C000E945E00C150C111F8CFECCF03
:10009800EC010E946A000E946900CE010E946B0078
:0600A800CE010E9467007A
:0E00AE0083B7896683BF87B3886087BB0895D8
:0A00BC0080E89CE00197F1F7089539
:0400C6000C94000096
:0400CA008CBF08954A
:0400CE000E94340058
:0200D20008958F
:0200D40008958D
:0200D60008958B
:00000001FF
