:100000000C942A000C945A000C945A000C945A0038
:100010000C945A000C945A000C945A000C945A00F8
:100020000C945A000C945A000C945A000C945A00E8
:100030000C945A000C945A000C945A000C945A00D8
:100040000C945A000C945A000C945A000C945A00C8
:100050000C945A0011241FBECFE5D8E0DEBFCDBFFF
:0C0060000E9436000C944F00F894FFCF73
:10006C0081E087BB18BA8EB581608EBD20E030E090
:10007C008CB59DB581319742D8F32F5F3F4F1DBC96
:10008C001CBC25363105A4F398B381E0892788BBC5
:02009C00EDCFA6
:10009E00EC010E945F000E945E00CE010E94600093
:0600AE00CE010E945C007F
:0400B4000C940000A8
:0400B8000E9434006E
:0200BC000895A5
:0200BE000895A3
:0200C0000895A1
:00000001FF
