:100000000C942D000C94B3020C94B3020C94B30224
:100010000C94B3020C94B3020C94B3020C94B3028C
:100020000C94B3020C94B3020C94B3020C94B3027C
:100030000C94B3020C94B3020C94B3020C94B3026C
:100040000C94B3020C94B3020C94B3020C94B3025C
:100050000C94B30200600071800011241FBECFE534
:10006000D8E0DEBFCDBFE4E5F0E040E017C0B591D9
:10007000A59135912591059107FD0CC0959185912C
:10008000EF01F92FE82F05900D92A217B307D9F7CA
:10009000FE0104C01D92A217B307E1F7E935F4078A
:0E00A00031F70E94E6010C949B02F894FFCF0A
:1000AE00726C314F6E0052656C617920312054753F
:1000BE00726E73204F6E2E0D0A00726C314F666693
:1000CE000052656C61792031205475726E73204F29
:1000DE0066662E0D0A00726C324F6E0052656C61B0
:1000EE00792032205475726E73204F6E2E0D0A00D9
:1000FE00726C324F66660052656C61792032205404
:10010E0075726E73204F66662E0D0A00726C334F39
:10011E006E0052656C61792033205475726E7320B7
:10012E004F6E2E0D0A00726C334F66660052656C70
:10013E0061792033205475726E73204F66662E0DD2
:10014E000A00726C344F6E0052656C617920342057
:10015E005475726E73204F6E2E0D0A00726C344FF2
:10016E0066660052656C61792034205475726E7328
:10017E00204F66662E0D0A00616C6C4F6E00416C4E
:10018E006C2072656C617973207475726E206F6E5F
:10019E002E0D0A00616C6C4F666600416C6C20720D
:1001AE00656C617973207475726E206F66662E0DA4
:1001BE000A00496E76616C696420636F6D6D616EC5
:1001CE00642E0D0A0041546D65676133322055412E
:1001DE0052542052656C617920436F6E74726F6C4D
:1001EE002052656164792E0D0A00456E7465722089
:1001FE006120636F6D6D616E6420616E642070723C
:10020E0065737320456E7465722E0D0A000D0A43D8
:10021E006F6D6D616E6420746F6F206C6F6E672EE4
:03022E000D0A00B6
:10023200CF92DF92EF92E0917000F0E0E05AFF4F30
:10024200108280E690E06C0120E8E22E2EEA30E097
:1002520040E08E2DB6010E946402892B49F485B3D9
:10026200816085BB64EB70E080E00E948502A7C0DC
:1002720028EC30E040E08E2DB6010E946402892B0A
:1002820049F485B38E7F85BB6FEC70E080E00E94FD
:10029200850295C024EE30E040E08E2DB6010E942A
:1002A2006402892B49F485B3826085BB6AEE70E0F3
:1002B20080E00E94850283C02EEF30E040E08E2D68
:1002C200B6010E946402892B49F485B38D7F85BBF8
:1002D20065E071E080E00E94850271C02AE131E0B0
:1002E20040E08E2DB6010E946402892B49F485B349
:1002F200846085BB60E271E080E00E9485025FC09D
:1003020024E331E040E08E2DB6010E946402892B85
:1003120049F485B38B7F85BB6BE371E080E00E947B
:1003220085024DC020E531E040E08E2DB6010E94ED
:100332006402892B49F485B3886085BB66E571E068
:1003420080E00E9485023BC02AE631E040E08E2D2B
:10035200B6010E946402892B49F485B3877F85BB6D
:1003620061E771E080E00E94850229C026E831E061
:1003720040E08E2DB6010E946402892B49F485B3B8
:100382008F6085BB6CE871E080E00E94850217C037
:1003920022EA31E040E08E2DB6010E946402892BF0
:1003A20049F485B3807F85BB69EA71E080E00E94F1
:1003B200850205C060EC71E080E00E9485020E9427
:0A03C200A602EF90DF90CF9008959F
:1003CC0084B38F6084BB85B3807F85BB60E875E2A6
:1003DC0080E090E00E941F0263ED71E080E00E94DB
:1003EC00850268EF71E080E00E9485025F9BFECF82
:1003FC000E94AF02C82F0E94AB02CD3019F40E94AC
:10040C001901F4CFCA3091F3E0917000EF3048F449
:10041C0081E08E0F80937000F0E0E05AFF4FC083B4
:10042C00E5CF6BE172E080E00E9485020E94A6029B
:02043C00DDCF12
:10043E00DC01CB01880F991FAA1FBB1F880F991FC4
:10044E00AA1FBB1F9C01AD01220F331F441F551F56
:10045E00220F331F441F551F60E074E284EF90E0BB
:10046E000E9442022150310930BD29B988E18AB972
:06047E0086E880BD089530
:10048400A1E21A2EAA1BBB1BFD010DC0AA1FBB1F94
:10049400EE1FFF1FA217B307E407F50720F0A21B06
:1004A400B30BE40BF50B661F771F881F991F1A9473
:1004B40069F760957095809590959B01AC01BD019D
:0404C400CF010895C7
:1004C800CF92DF92EF926B01E82EF6018491E7FC60
:1004D8008081F901549147FD508185130BC0882311
:1004E80041F08FEFC81AD80AE80A2F5F3F4F4F4FE5
:1004F800ECCF582F90E0851B9109EF90DF90CF90BB
:02050800089554
:10050A00CF92DF92EF926B01E82E06C00E94AB02F7
:10051A008FEFC81AD80AE80AF6018491E7FC8081AD
:0C052A008111F4CFEF90DF90CF90089586
:10053600EC010E94B8020E94B702CE010E94B902E5
:06054600CE010E94B50287
:0A054C0010927000109260000895F4
:080556005D9BFECF8CB90895F6
:08055E005F9BFECF8CB10895F4
:040566000C940000F1
:04056A000E94550096
:02056E000895EE
:020570000895EC
:020572000895EA
:00000001FF
