:1000000029C0000052C0000050C000004EC00000D7
:100010004CC000004AC0000048C0000046C00000BC
:1000200044C0000042C0000040C000003EC00000CC
:100030003CC000003AC0000038C0000036C00000DC
:1000400034C0000032C0000030C000002EC00000EC
:100050002CC0000011241FBECFE5D8E0DEBFCDBF0D
:080060000AD002C0F894FFCFA2
:0E006800EC011ED01AD0CE0119D0CE0118D056
:10007600B89AC09A2FEF83ED90E3215080409040CC
:10008600E1F700C00000C0982FEF83ED90E3215008
:0C00960080409040E1F700C00000EBCF7C
:0200A2000895BF
:0200A4000895BD
:0200A600DEDF9B
:0200A8000895B9
:0200AA00AACFDB
:00000001FF
