:100000000C942A000C94FE000C94FE000C94FE004C
:100010000C94FE000C94FE000C94FE000C94FE0068
:100020000C94FE000C94FE000C94FE000C94FE0058
:100030000C94FE000C94FE000C94FE000C94FE0048
:100040000C94FE000C94FE000C94FE000C94FE0038
:100050000C94FE0011241FBECFE5D8E0DEBFCDBF5B
:0C0060000E9447000C94EA00F894FFCFC7
:10006C004D6963726F6368697020285E6F5E29004A
:10007C00476F62616C204B726973686E616E2056BB
:01008C000073
:10008E0081B3876081BB8FEF87BB87E893E10197D0
:10009E00F1F700C0000088E30E94CA0088E00E94C9
:1000AE00CA0081E00E94CA0083EF91E00197F1F748
:1000BE0000C0000086E00E94CA008CE00E94CA00C8
:1000CE006CE670E080E00E94B40080EC0E94CA00F2
:1000DE006CE770E080E00E94B4000E947700FDCFD4
:1000EE00CF93C0E00DC088E10E94CA002FE58AEED2
:1000FE0090E0215080409040E1F700C00000CF5FBB
:10010E00C03188F3C0E00DC08CE10E94CA002FE51B
:10011E008AEE90E0215080409040E1F700C0000050
:0A012E00CF5FC03188F3CF91089530
:1001380017BA82B3826082BB82B38B7F82BB82B3E1
:10014800816082BB000096B382B38E7F82BB0000C1
:100158009923ACF38FEF87BB82B38D7F82BB089561
:10016800CF92DF92EF926B01E82E06C00E94DA0070
:100178008FEFC81AD80AE80AF6018491E7FC808153
:0C0188008111F4CFEF90DF90CF9008952C
:10019400CF93C82F0E949C0082B38B7F82BB82B313
:1001A4008D7F82BBC8BB0E94F50018BACF91089519
:1001B400CF93C82F0E949C0082B3846082BB82B319
:1001C4008D7F82BBC8BB0E94F50018BACF910895F9
:1001D400EC010E9403010E940201CE010E9404016D
:0601E400CE010E940001A3
:1001EA0082B3816082BB000082B38E7F82BB000033
:0201FA00089566
:0401FC000C9400005F
:040200000E94340024
:0202040008955B
:02020600089559
:02020800089557
:00000001FF
