:100000000C942A000C9462000C9462000C94620020
:100010000C9462000C9462000C9462000C94360004
:100020000C9462000C9462000C9462000C946200C8
:100030000C9462000C9462000C9462000C946200B8
:100040000C9462000C9462000C9462000C946200A8
:100050000C94620011241FBECFE5D8E0DEBFCDBFF7
:0C0060000E9448000C945700F894FFCF59
:10006C001F920F920FB60F9211248F939F9398B3F8
:10007C0081E0892788BB9F918F910F900FBE0F90C5
:04008C001F90189514
:10009000789487B3816087BB8EB58B608EBD89B73E
:0E00A000806189BF88E09DE39BBD8ABDFFCFD4
:1000AE00EC010E9467000E946600CE010E9468006B
:0600BE00CE010E94640067
:0400C4000C94000098
:0400C8000E9434005E
:0200CC00089595
:0200CE00089593
:0200D000089591
:00000001FF
