:100000000C942A000C9461000C9461000C94610023
:100010000C9461000C9461000C9461000C946100DC
:100020000C9461000C9461000C9461000C946100CC
:100030000C9461000C9461000C9461000C946100BC
:100040000C9461000C9461000C9461000C946100AC
:100050000C94610011241FBECFE5D8E0DEBFCDBFF8
:0C0060000E9436000C945600F894FFCF6C
:10006C0087B3816087BB87B38D7F87BB88B3826082
:10007C0088BB98B381E0892788BBB19907C08FE30F
:10008C009CE90197F1F700C00000F3CF9FEF21EE40
:10009C0084E0915020408040E1F700C00000E9CF9F
:1000AC00EC010E9466000E946500CE010E94670070
:0600BC00CE010E9463006A
:0400C2000C9400009A
:0400C6000E94340060
:0200CA00089597
:0200CC00089595
:0200CE00089593
:00000001FF
